:100000000C9446000C9465000C9465000C946500FB
:100010000C9465000C9465000C9465000C946500CC
:100020000C9465000C9465000C9465000C946500BC
:100030000C9465000C9465000C9465000C946500AC
:100040000C9465000C9465000C9465000C9465009C
:100050000C9465000C9465000C9465000C9465008C
:100060000C9465000C9465000C9465000C9465007C
:100070000C9465000C9465000C9465000C9465006C
:100080000C9465000C9465000C94650011241FBE4F
:10009000CFEFD0E1DEBFCDBF19E0A0E0B1E0E8E9ED
:1000A000FAE100E00BBF02C007900D92AE3BB10732
:1000B000D9F71EE0AEEBB9E001C01D92AA32B1073C
:1000C000E1F70E94AA060C944A0D0C9400008FEFF1
:1000D00088BB17BA000095980000969A0000979A7E
:1000E00000009798B799F6CF08950F931F93082FA4
:1000F000162F0E9467008FEF87BB0000113011F4AC
:10010000959A01C095980000969808BB0000979AB0
:10011000000097981F910F9108958F929F92BF9220
:10012000CF92DF92EF92FF920F931F93CF93DF93C3
:100130004C0100E010E030E8B32E8B2D60E00E940F
:10014000750080E860E00E9475006401C00ED11E59
:100150002AE2E22E2AE0F22EE00EF11EC0E0D0E00C
:10016000F60181916F01F70181937F0161E00E94A7
:1001700075002196C031D10599F7005F1F4FB394E8
:10018000F0EABF16D1F600E012E090E8B92E8B2D10
:1001900060E00E94750088E860E00E9475006401DC
:1001A000C00ED11E8AE2E82E8AE0F82EE00EF11E83
:1001B000C0E0D0E0F60181916F01F70181937F01EA
:1001C00061E00E9475002196C031D10599F7005F6A
:1001D0001F4FB394F0EABF16D1F6DF91CF911F9174
:1001E0000F91FF90EF90DF90CF90BF909F908F90F6
:1001F00008958AE29AE00E948D000895982F87FD65
:100200002EC0613460F5E62FF0E054E0EE0FFF1FE2
:100210005A95E1F7869586958695E80FF11D292F69
:1002200030E02095309527703070E65DF54F44231F
:1002300061F481E090E002C0880F991F2A95E2F7EF
:100240008095208182238083089581E090E002C020
:10025000880F991F2A95E2F72081282B2083089583
:100260004F925F926F927F928F929F92AF92BF92C6
:10027000CF92DF92EF92FF920F931F93CF93DF9372
:10028000582E642E402E00E010E0882E9924A62ED1
:10029000BB24C42EDD24E22EFF240FC0662D6C0F7C
:1002A000872D442D0E94FE002196CE018C0D9D1DB0
:1002B0008E159F059CF30F5F1F4FC801880D991D78
:1002C0008A159B052CF4C0E0D0E0752C700EEDCFA4
:1002D000DF91CF911F910F91FF90EF90DF90CF9022
:1002E000BF90AF909F908F907F906F905F904F9056
:1002F00008951F930E94F60118BA8FEF87BB82B34F
:100300008F7182BB81B3806E81BB24EF31E048ECFA
:1003100050E0CA010197F1F721503040D1F780E356
:1003200060E00E94750015E3812F8A95F1F780E364
:1003300060E00E9475001A95F1F780E360E00E948A
:10034000750088EC90E00197F1F78CE060E00E9486
:10035000750080E991E00197F1F781E060E00E948B
:10036000750080E29EE40197F1F786E060E00E946C
:1003700075001F910895EAE2FAE080E094E0DF0161
:100380009C011D9221503040E1F7CF010E948D0069
:1003900008950E94790182E960E00E94750080EB77
:1003A00061E00E94750080EA61E00E94750080EBC8
:1003B00061E00E94750080EA61E00E94750080EBB8
:1003C00061E00E94750080EA61E00E94750080EBA8
:1003D00061E00E94750080EA61E00E94750086E39A
:1003E00060E00E9475000E94BB0108958FEF87BBFB
:1003F00084BB81BB82B9809361008093640012BA90
:1004000098E093B910926200AD9A88BB82E085BBF8
:10041000E5E6F0E080818861808318BA1082089553
:10042000DF93CF9300D000D00F92CDB7DEB7E0912D
:10043000C309F091C409099567E00E948C09892FCE
:1004400090E0FC01E258F64F308153E0880F991F8D
:100450005A95E1F7FC01E85CF64F508121815C83FD
:100460002D83880F991F622F23E0482F70E080E0D2
:1004700090E00F900F900F900F900F90CF91DF9121
:100480000895AF92BF92DF92EF92FF920F931F9366
:10049000CF93DF9377ECE72E79E0F72E0FEE19E09C
:1004A000DD2461E0A62EB12CF70120813181F80115
:1004B000808191812817390771F1C0E0D0E08C2F3D
:1004C00095010C2E02C0220F331F0A94E2F7F701A8
:1004D000A081B181A223B3230C2E02C0B595A795AC
:1004E0000A94E2F7F80140815181242335230C2E30
:1004F00002C0359527950A94E2F7A217B30739F0A1
:10050000E091C509F091C6096D2D4A2F09952196F4
:10051000CA30D105A1F6D39482E090E0E80EF91E2E
:100520000E5F1F4F94E1D91609F0BECF20E030E0F6
:10053000F901E151F64FD901A953B64F8D919C9124
:10054000918380832E5F3F4F2832310589F7DF91F9
:10055000CF911F910F91FF90EF90DF90BF90AF90E0
:100560000895CF92DF92FF920F931F93CF93DF9363
:1005700007EC19E0FF24E1E0CE2ED12C23C0A60128
:100580000C2E02C0440F551F0A94E2F7F801808137
:100590009181482359230C2E02C0559547950A9402
:1005A000E2F7E091C509F091C6098C2F6F2D0995EE
:1005B0002196CA30D10519F7F3940E5F1F4FF4E16D
:1005C000FF1619F0C0E0D0E0DACFDF91CF911F9194
:1005D0000F91FF90DF90CF9008958091BE0908950C
:1005E0006F927F928F929F92AF92BF92CF92DF9243
:1005F000EF92FF920F931F93DF93CF9300D000D021
:100600000F92CDB7DEB7942F4983252F5A836B8382
:100610007C838D838C809D80332727FD3095F90165
:10062000EE0FFF1FE953F64FA0E0B0E00FE010E03F
:10063000590181E0682E712CC92EDD24C7FCD094AD
:1006400031C0F7FC21C0C301062E02C0880F991FDC
:100650000A94E2F788219921062E02C09695879583
:100660000A94E2F7892B81F09A012C0D3D1DC301FC
:1006700002C0880F991F2A95E2F79C018081918121
:10068000822B932B918380834F5F5F4F615070402B
:1006900044305105B1F61196045010403296A43002
:1006A000B10539F0B80140E050E07D01EA0CFB1CD7
:1006B000C8CF0F900F900F900F900F90CF91DF91B8
:1006C0001F910F91FF90EF90DF90CF90BF90AF9070
:1006D0009F908F907F906F900895DF93CF9300D07D
:1006E00000D00F92CDB7DEB79093C6098093C509AD
:1006F0007093C4096093C3095093C0094093BF0924
:100700003093C2092093C1091092BE09E7ECF9E0C9
:100710001192119289E0EF3EF807D1F70E94100282
:1007200029833A834B835C836D83A7E1BAE0FE01A2
:10073000319685E001900D928150E1F70E94100200
:1007400029833A834B835C836D83ACE1BAE0FE017D
:10075000319685E001900D928150E1F7E091BF095B
:10076000F091C009309771F080911E0A85958595AA
:1007700085958595992787FD9095880F991F8059B4
:10078000964F09954091170A5091180A6091190ADD
:1007900070911A0A80911B0A0E94F0020E94B10215
:1007A0000F900F900F900F900F90CF91DF910895C1
:1007B0002F923F924F925F926F927F928F929F9271
:1007C000AF92BF92CF92DF92EF92FF920F931F935F
:1007D000DF93CF93CDB7DEB729970FB6F894DEBF7E
:1007E0000FBECDBF4C01C0901A0AD0901B0A40909A
:1007F000190A5090180A2091170A81E0881671F0A2
:10080000881640F092E0891679F0E3E08E1689F0C0
:1008100076012AC0F22FF150FE8303C0822F8F5F32
:100820008E8376015F8222C0952D9F5F9F83760124
:100830001CC0942D907F842D8F5F8370482E492A91
:10084000E42DE595E595E595E595FF27E7FDF09520
:10085000EE0FFF1FEE0FFF1FE80FF11DEE0FFF1F42
:10086000E050F74FE080F1805F822E83852D99273D
:1008700087FD9095DC01AA0FBB1FA953B64FE0E09E
:10088000F0E00FE010E01C01622E772467FC70940A
:100890004EC0B7FC27C081E090E0062E02C0880F52
:1008A000991F0A94E2F78C219D21062E02C096958D
:1008B00087950A94E2F7892BA9F09A01260D371D36
:1008C00081E090E002C0880F991F2A95E2F79C0111
:1008D000209530958D919C911197822393231196A9
:1008E0009C938E934F5F5F4F615070404430510531
:1008F00081F63196045010401296E430F105B9F4B7
:10090000EF818E2F992787FD9095FC01EE0FFF1F39
:10091000E953F64FCC24DD240FE0A02EB12C2E811C
:10092000222E332427FC30949987888757C0B8013A
:1009300040E050E05F01A20CB31CABCF81E090E03F
:10094000002E02C0880F991F0A94E2F78E219F2182
:10095000002E02C0969587950A94E2F7892B41F103
:1009600077FE04C0AA30B10518F141C0AB01420DB9
:10097000531DAA30B105C0F484E168167104A4F4D3
:1009800021E030E0042E02C0220F331F0A94E2F768
:10099000808191812823392302C0359527954A9576
:1009A000E2F72115310511F021E030E02223F9F4BE
:1009B0006F5F7F4F0150104011966430710509F050
:1009C000BDCF0894C11CD11C8CEF9FEFA80EB91E9F
:1009D000329694E0C916D10409F4C6C08501D1014C
:1009E00060E070E0688479846C0C7D1CA7CFE2E045
:1009F0008E16910409F091C024C0842D8F70E42DCF
:100A0000E595E595E595E595FF27E7FDF095EE0F72
:100A1000FF1FEE0FFF1FE80FF11DEE0FFF1FE85C39
:100A2000F64FE080F180F0921B0AE0921A0A4092A1
:100A3000190AFF81F093180A2E812093170A11E0FA
:100A40006DC04091170A5091180A6091190A70916F
:100A50001A0A80911B0A0E94F00257FE03C081E02F
:100A60008093BE0947EC59E030E060E0FA018081F4
:100A700091818F5F9340BCF0232F0EC0E22FF0E0F6
:100A8000EE0FFF1FDF01AB53B64F8D919C91E953E1
:100A9000F64F918380832150222381F76F5F10925C
:100AA000C8091092C7093F5F4E5F5F4F3431F1F6BE
:100AB000E091C109F091C209309711F0862F099594
:100AC000A7E1BAE0ECE1FAE085E001900D928150F7
:100AD000E1F70E94100229833A834B835C836D8384
:100AE000ACE1BAE0FE01319685E001900D928150B3
:100AF000E1F7E091BF09F091C009309771F0809162
:100B00001E0A8595859585958595992787FD9095EC
:100B1000880F991F8059964F099510E04091170A48
:100B20005091180A6091190A70911A0A80911B0A53
:100B30000E94F002812F29960FB6F894DEBF0FBEF7
:100B4000CDBFCF91DF911F910F91FF90EF90DF907C
:100B5000CF90BF90AF909F908F907F906F905F905D
:100B60004F903F902F90089523E08216910409F052
:100B70005ACF43CF2091260A3091270A280F311DE2
:100B80003093270A2093260A823081F0833018F4AC
:100B9000813011F505C0833079F08430E9F412C05A
:100BA0008091280A9091290A0A9612C08091280AF9
:100BB0009091290A49960CC08091280A9091290A9F
:100BC0008D9606C08091280A9091290A805B9F4FDC
:100BD0009093290A8093280AC90169E170E00E9474
:100BE00098096F5F6093850908958091210A91E0CB
:100BF00089278093210A882319F00E94D806089536
:100C00000E94B10208950E94070A0895411141E02F
:100C10000E944D070895FC01808191810E94F00699
:100C20000895809185090E9474076091280A709147
:100C3000290A80E090E00E94AC07089580E69AEED1
:100C40000197F1F78091210A882349F48091220AC3
:100C50009091230A01969093230A8093220A80910F
:100C600085092CE030E0281B31098091220A9091FF
:100C7000230A8217930758F01092230A1092220A2F
:100C800081E08093250A82E090E00E94D8030E94D0
:100C9000E707982F282F30E08091240A882319F045
:100CA00081508093240A2115310509F443C08091B5
:100CB000240A882309F03EC083E08093240A8091AF
:100CC000210A882321F02130310509F03FC09530F9
:100CD000B1F0963028F49130F9F0923041F507C028
:100CE000993099F09A3031F0963009F50BC083E0D5
:100CF00090E002C082E090E00E94D80318C080E03B
:100D000090E0FACF81E090E0F7CF82E090E00E949F
:100D1000D8038823D1F70BC00E94F50588EE93E035
:100D200028EC30E0F9013197F1F70197D9F781E02C
:100D30008093250A8091250A882341F01092250A84
:100D40000E9441020E94F9000E94110608950E942B
:100D5000D70608950E94D9060E94BF088FEF88BB6E
:100D600017BA86E096E063E076E04BE056E02AEBC7
:100D700035E00E946D030E94BB010E94BB0180E030
:100D800095E00E948D000E94E7078823E1F380E050
:100D900091E00E948D0002C00E941E060E94ED029A
:100DA0008823D1F30E94D70680E090E0089508954B
:100DB00008950F930E94C9010E94BB0181E363E57E
:100DC00040E020E401E00E94300182E362E541E07E
:100DD0002FE300E00E9430010E94F9000F91089576
:100DE0006F927F928F929F92AF92BF92CF92DF923B
:100DF000EF92FF920F931F93CF93DF934C014FE03D
:100E0000E42EF12C36E1D32E21E0622E712C2EC07F
:100E100093E0B92EB10E00E0C3010C2E02C0880F82
:100E2000991F0A94E2F7882199210C2E02C0969509
:100E300087950A94E2F7892B09F001E0812F6B2D49
:100E40004D2D2C2D0E943001812F8F5F6A2D40E0A7
:100E50000E94FE0021971B2D1A32D1F68CEF9FEFD6
:100E6000E80EF91E92E2C91649F0DC2C83E0C82E88
:100E7000CD0CAD2CA394E7011EE1CACFDF91CF9139
:100E80001F910F91FF90EF90DF90CF90BF90AF90A8
:100E90009F908F907F906F900895EF92FF920F93A5
:100EA000CF93DF93042F93E0899F70011124699FF2
:100EB000E0011124CE018E5F482F6E2D6A5CCE01B9
:100EC0008B5F282F8E2D8D5C0E943001CE018D5FAF
:100ED000682F8E2D8C5C40E00E94FE00DF91CF9148
:100EE0000F91FF90EF9008950F931F93DF93CF938F
:100EF00000D000D000D0CDB7DEB700D000D000D0F9
:100F0000EDB7FEB731968E010F5F1F4FADB7BEB77D
:100F100012961C930E93119726E839E033832283AF
:100F2000848315820E94170A8DB79EB706960FB666
:100F3000F8949EBF0FBE8DBF81E16CE6A8010E94B0
:100F40005C0926960FB6F894DEBF0FBECDBFCF91D9
:100F5000DF911F910F9108950F931F93DF93CF930C
:100F600000D000D000D0CDB7DEB700D000D000D088
:100F7000EDB7FEB731968E010F5F1F4FADB7BEB70D
:100F800012961C930E93119726E839E0338322833F
:100F9000758364830E94170A8DB79EB706960FB6B5
:100FA000F8949EBF0FBE8DBF86E26CE6A8010E943A
:100FB0005C0926960FB6F894DEBF0FBECDBFCF9169
:100FC000DF911F910F910895000086B308958FEF70
:100FD00088BB17BA85B38F73806885BB85B38F7361
:100FE000806885BB000086B38F3F41F180E29EE4BC
:100FF0000197F1F7000086B38F3F01F18F3EB1F00A
:10100000803F38F48F3BB1F08F3D91F08F37B1F4D2
:1010100013C08B3F39F08D3F19F0873F79F404C03E
:1010200021E00DC022E00BC023E009C024E007C08E
:1010300025E005C026E003C027E001C020E085B31D
:101040008F73806485BB85B38F73806485BB00001C
:1010500086B38F3F69F180E29EE40197F1F70000CB
:1010600086B38F3F29F18F3EE1F0803F38F48F3B0C
:10107000E1F08F3DC1F08F37D9F419C08B3F69F093
:101080008C3F18F4873FA1F40AC08D3F21F08E3FBA
:1010900079F428E00DC029E00BC02AE009C02BE05C
:1010A00007C02CE005C02DE003C02EE001C02FE0FA
:1010B000822F089518BA8FEF87BB12BA81B3806E62
:1010C00081BB80E395E70197F1F7089517BA9598EA
:1010D000969A979A88EB9BE0B79B04C0009711F013
:1010E0000197FACF97988FEF87BB08951F93182F1A
:1010F0000E946608959A9698979A80EA9FE00197D1
:10110000F1F718BB979880E197E20197F1F71F91EB
:1011100008951F93182F0E94660895989698979A9D
:1011200080EA9FE00197F1F718BB979880E197E27A
:101130000197F1F71F9108950F931F9381E00E948B
:10114000890880E395E70197F1F788E30E94890811
:1011500000E117E2C8010197F1F78FE00E948908CA
:101160008CE00E948908C8010197F1F786E00E948F
:101170008908C8010197F1F71F910F9108950E9406
:10118000F60185B38F7385BB84B3806C84BB8FEF0E
:1011900088BB17BA0895AF92BF92CF92DF92EF92B9
:1011A000FF920F931F93DF93CF93CDB7DEB72F97A7
:1011B0000FB6F894DEBF0FBECDBF0E94BF080E94DD
:1011C0005A080E949C08DE011196ECE8F9E08FE0D5
:1011D00001900D928150E1F78FEF88BB17BAEE2492
:1011E000EA945E010894A11CB11C8FE0C82ED12C9A
:1011F000CC0EDD1E0E94E707F82E8823D9F318BA1B
:10120000E7BA80E90E9489088501F80181918F0180
:101210000E9476080C151D05C1F78F2D0E947608D7
:10122000E8BA17BAE7CF9F92AF92BF92CF92DF9200
:10123000EF92FF920F931F93CF93DF93982EA62EDA
:1012400050E040535040EA01CC0FDD1FC40FD51FC2
:10125000C556D64FEE24FF241BC0692D600FA60192
:10126000002E02C0559547950A94E2F741705070E0
:101270008B2D0E94FE000F5F1F4F0830110569F78C
:101280000894E11CF11C219683E0E816F10441F07A
:101290008881C82EDD2400E010E0BA2CBE0CDDCF22
:1012A000DF91CF911F910F91FF90EF90DF90CF9042
:1012B000BF90AF909F900895DF92EF92FF920F93AF
:1012C0001F93CF93DF93D62EE82EFF248A01262F7B
:1012D00030E0C901EC0114C04A3049F485E090E0E7
:1012E000E80EF91E8D2D90E09C01E90107C04D30FC
:1012F00029F08E2D6C2F0E94130924960F5F1F4F2B
:10130000F8014081442341F7DF91CF911F910F9164
:10131000FF90EF90DF900895991B79E004C0991F2A
:10132000961708F0961B881F7A95C9F7809508953F
:10133000AA1BBB1B51E107C0AA1FBB1FA617B707FB
:1013400010F0A61BB70B881F991F5A95A9F7809517
:101350009095BC01CD010895AF92BF92CF92DF92DC
:10136000EF92FF920F931F93CF93DF93EC01A8802E
:10137000B980CA80DB80A114B104C104D10441F456
:1013800084E2A82E89EDB82E8BE5C82E87E0D82EF2
:10139000C601B5012DE133EF41E050E00E940D0D93
:1013A00027EA31E440E050E00E94EE0C7B018C0122
:1013B000C601B5012DE133EF41E050E00E940D0D73
:1013C000CA01B9012CEE34EF4FEF5FEF0E94EE0C33
:1013D0006E0D7F1D801F911F97FF04C061507040EC
:1013E00080409048688379838A839B839B013F7701
:1013F000C901DF91CF911F910F91FF90EF90DF9086
:10140000CF90BF90AF9008950E94AC09089589EBEA
:1014100099E00E94AC090895A0E0B0E08093B9097A
:101420009093BA09A093BB09B093BC0908950F9398
:101430001F93DF93CF93CDB7DEB72E970FB6F894F7
:10144000DEBF0FBECDBF0D891E8986E08C831A8357
:1014500009838FEF9FE79E838D839E01275E3F4F19
:10146000CE0101966F89788DA9010E94480A2F81CB
:101470003885020F131FF80110822E960FB6F894CC
:10148000DEBF0FBECDBFCF91DF911F910F910895A9
:101490002F923F924F925F926F927F928F929F9284
:1014A000AF92BF92CF92DF92EF92FF920F931F9372
:1014B000DF93CF93CDB7DEB72B970FB6F894DEBF8F
:1014C0000FBECDBF3C012B015A01FC0117821682D1
:1014D000838181FD03C06FEF7FEFC6C19AE0892E43
:1014E0001E010894211C311CF3012381F20123FD0C
:1014F000859123FF81912F01882309F4B2C18532A0
:1015000039F423FD859123FF81912F01853229F440
:1015100090E0B3010E94640CE7CF982FFF24EE24E3
:101520009924FFE1FF15D0F09B3269F09C3228F43A
:10153000903259F0933291F40EC09D3249F09033BD
:1015400069F441E024C052E0F52A84E0F82A28C07A
:1015500098E0F92A25C0E0E1FE2A22C0F7FC29C064
:10156000892F80538A3070F4F6FE05C0989C902C29
:101570001124980E15C0E89CE02C1124E80EF0E22E
:10158000FF2A0EC09E3229F4F6FC6BC140E4F42A17
:1015900007C09C3619F450E8F52A02C0983649F481
:1015A000F20123FD959123FF91912F01992309F0D9
:1015B000B8CF892F8554833018F08052833038F4A7
:1015C00044E050E0A40EB51E5FE359830FC093368C
:1015D00031F0933779F0933509F056C020C0F5010A
:1015E0008081898342E050E0A40EB51E610101E0D4
:1015F00010E012C0F501C080D180F6FC03C06FEF8F
:101600007FEF02C0692D70E042E050E0A40EB51EED
:10161000C6010E94590C8C015FE7F52214C0F50148
:10162000C080D180F6FC03C06FEF7FEF02C0692D50
:1016300070E042E050E0A40EB51EC6010E944E0CC0
:101640008C0150E8F52AF3FE07C01AC080E290E052
:10165000B3010E94640CEA948E2D90E008171907DC
:10166000A8F30EC0F601F7FC8591F7FE81916F019A
:1016700090E0B3010E94640CE110EA940150104024
:101680000115110579F7EAC0943611F0993669F51C
:10169000F7FE08C0F501208131814281538184E049
:1016A00090E00AC0F501808191819C01442737FDBB
:1016B0004095542F82E090E0A80EB91E9FE6F922D3
:1016C00057FF09C050954095309521953F4F4F4F9A
:1016D0005F4FE0E8FE2ACA01B901A1012AE030E02B
:1016E0000E94900CD82ED21840C0953729F41F2D97
:1016F0001F7E2AE030E01DC01F2D197F9F3661F04C
:10170000903720F4983509F0ACC00FC0903739F00D
:10171000983709F0A6C004C028E030E00AC0106184
:1017200014FD146020E130E004C014FD166020E1D7
:1017300032E017FF08C0F5016081718182819381D9
:1017400044E050E008C0F50180819181BC0180E057
:1017500090E042E050E0A40EB51EA1010E94900C62
:10176000D82ED2188FE7F82EF122F6FE0BC05EEFCE
:10177000F522D91438F4F4FE07C0F2FC05C08FEE50
:10178000F82202C01D2D01C0192DF4FE0DC0FE016E
:10179000ED0DF11D8081803319F499EEF92208C016
:1017A0001F5FF2FE05C003C08F2D867809F01F5F12
:1017B0000F2DF3FC14C0F0FE0FC01E1510F09D2C71
:1017C0000BC09D2C9E0C911A1E2D06C080E290E04D
:1017D000B3010E94640C1F5F1E15C0F304C01E15E8
:1017E00010F4E11A01C0EE2404FF0FC080E390E082
:1017F000B3010E94640C02FF1DC001FD03C088E715
:1018000090E00EC088E590E00BC0802F867891F0C4
:1018100001FF02C08BE201C080E2F7FC8DE290E0A4
:10182000B3010E94640C06C080E390E0B3010E9403
:10183000640C9A94D914C0F3DA94F101ED0DF11D02
:10184000808190E0B3010E94640CDD20A9F706C0FE
:1018500080E290E0B3010E94640CEA94EE20C1F7AC
:1018600043CEF30166817781CB012B960FB6F894B6
:10187000DEBF0FBECDBFCF91DF911F910F91FF90C3
:10188000EF90DF90CF90BF90AF909F908F907F9020
:101890006F905F904F903F902F900895FC010590BE
:1018A000615070400110D8F7809590958E0F9F1F62
:1018B0000895FC016150704001900110D8F78095A7
:1018C00090958E0F9F1F08950F931F93CF93DF93D3
:1018D0008C01EB018B8181FF1BC082FF0DC02E812B
:1018E0003F818C819D812817390764F4E881F98153
:1018F0000193F983E88306C0E885F985802F09956F
:10190000892B31F48E819F8101969F838E8302C043
:101910000FEF1FEFC801DF91CF911F910F91089535
:10192000FA01AA27283051F1203181F1E8946F9310
:101930006E7F6E5F7F4F8F4F9F4FAF4FB1E03ED0B6
:10194000B4E03CD0670F781F891F9A1FA11D680F54
:10195000791F8A1F911DA11D6A0F711D811D911D87
:10196000A11D20D009F468943F912AE0269F1124FC
:101970003019305D3193DEF6CF010895462F477060
:10198000405D4193B3E00FD0C9F7F6CF462F4F70BB
:10199000405D4A3318F0495D31FD4052419302D019
:1019A000A9F7EACFB4E0A6959795879577956795BF
:1019B000BA95C9F700976105710508959B01AC01BF
:1019C0000A2E06945795479537952795BA95C9F7E6
:1019D000620F731F841F951FA01D0895629FD00181
:1019E000739FF001829FE00DF11D649FE00DF11DDA
:1019F000929FF00D839FF00D749FF00D659FF00D89
:101A00009927729FB00DE11DF91F639FB00DE11D75
:101A1000F91FBD01CF011124089597FB092E05265A
:101A20000ED057FD04D014D00AD0001C38F45095C5
:101A30004095309521953F4F4F4F5F4F0895F6F7F2
:101A400090958095709561957F4F8F4F9F4F08952A
:101A5000A1E21A2EAA1BBB1BFD010DC0AA1FBB1FB2
:101A6000EE1FFF1FA217B307E407F50720F0A21B24
:101A7000B30BE40BF50B661F771F881F991F1A9491
:101A800069F760957095809590959B01AC01BD01BB
:081A9000CF010895F894FFCF87
:101A9800000000000000FFFFFFFF800000000000C2
:101AA800000000000000800000008000000000002E
:101AB800000000000000800000008000000000001E
:101AC800000000000000800000008000000000000E
:101AD8000039CE739C0080000000800000000000E8
:101AE8000011045110008000000080000000000078
:101AF8000011C4611C00800000008000000000008C
:101B08000011045104008000000080000000000063
:101B18000011C4539C0080000000800000000000F9
:101B280000000000000080000000808EAE800000F1
:101B3800000000000000800000008088A8800000ED
:101B480000000000000080000000808EAE840000CD
:101B5800000000000000800000008088A8800000CD
:101B68000000000000008000000080EE4EE400004D
:101B7800000000000000800000008000000000005D
:101B8800000000000000800000008000000000004D
:101B9800000000000000800000008000000000003D
:101BA800000000000000800000008000000000002D
:101BB800000000000000800000008000000000001D
:101BC800000000000000800000008000000000000D
:101BD80000000003FFC0800000008000000000003B
:101BE80000975704002080000000800000000000DB
:101BF80000D452080010800000008000000000009F
:101C080000B72208001080000000800000000000DB
:101C180000945208001080000000800000000000BE
:101C2800009752087010800000008000000000003B
:101C38000000000850108000000080000000000034
:101C48000000000870108000000080000000000004
:101C580000000008701080000000800000000000F4
:101C68000000000850108000000080000000000004
:101C78000000000870108000000080EEEEE0000018
:101C8800000000087E10800000008088AA80000004
:101C9800000000085A108000000080E8ACE4000052
:101CA800000000087E10800000008028AA80000044
:101CB8000000000400208000000080EEEAE400003C
:101CC80000000003FFC0800000008000000000004A
:101CD80000000000000080000000800000000000FC
:101CE80000000000000080000000800000000000EC
:101CF80000000000000080000000800000000000DC
:101D080000000000000080000000800000000000CB
:101D180000000000000080000000800000000000BB
:101D280000000000000080000000800000000000AB
:101D3800000000000000800000008000000000009B
:101D4800000000000000800000008000000000008B
:101D5800000000000000800000008000000000007B
:101D6800000000000000800000008000000000006B
:101D7800000000000000800000008000000000005B
:101D8800000000000000800000008000000000004B
:101D9800000000000000800000008000000000003B
:101DA800000000000000800000008000000000002B
:101DB800000000000000800000008000000000001B
:101DC800000000000000800000008000000000000B
:101DD80000000000000080000000800000000000FB
:101DE80000000000000080000000800000000000EB
:101DF80000000000000080000000800000000000DB
:101E080000000000000080000000800000000000CA
:101E180000000000000080000000800000000000BA
:101E2800051750077670800000008002A0E80000C7
:101E3800051250015240800000008002842C4C6042
:101E4800025251C752708000000080012A4AAAA09D
:101E5800055250045210800000008002AC8ACAE08B
:101E6800057270077770800000008002A6EA6A2079
:101E7800000000000000800000008000000000C09A
:101E8800000000000000FFFFFFFF800000000000CE
:101E9800000000000000000000000000000000003A
:101EA800000000000000000000000000000000002A
:101EB800000000000000000000000000000000001A
:101EC800000000000000000000000000000000000A
:101ED80000000000000000000000000000000000FA
:101EE800000001FFC7FE3FF9FE01FF00FA000000F5
:101EF800000001084102210841001001060000000D
:101F08000000010841022108408010020200000080
:101F18000000010841022108408010020200000070
:101F28000000010841122108408010020000000052
:101F380000000008011001004080100100000000AE
:101F4800000000080110010041001000C00000005E
:101F58000000000801F001007E00100030000000C1
:101F68000000000801100100440010000C000000EF
:101F780000000008011001004200100004000000E9
:101F880000000008010001004200100202000000E9
:101F980000000008010101004100100202000000D9
:101FA80000000008010101004100100202000000C9
:101FB8000000000801010100408010030400000037
:101FC8000000007F07FF0FE1F061FF02F80000004A
:101FD80000000000000000000000000000000000F9
:101FE80000000000000000000000000000000000E9
:101FF80000000000000000000000000000000000D9
:1020080000000000000000000000000000000000C8
:1020180000000000000000000000000000000000B8
:1020280000000000000000000000000000000000A8
:102038000000000000000000000000000000000098
:102048000000000000000000000000000000000088
:102058000000000000000000000000000000000078
:102068000000000000000000000000000000000068
:102078000000000000000000000000000000000058
:102088000000000000000000000000000000000048
:102098000000000000000000000000000000000038
:1020A8000000000000A2EA15775767000000000052
:1020B8000000000000A24A1541545400000000002E
:1020C80000000000004A4A09777755000000000028
:1020D8000000000000AA4A15445455000000000002
:1020E8000000000000AE4E157757570000000000B2
:1020F80000000000000000000000000000000000D8
:1021080000000000000000000000000000000000C7
:1021180000000000000000000000000000000000B7
:1021280000000000000000000000000000000000A7
:102138000000000000000000000000000000000097
:102148000000000000000000000000000000000087
:102158000000000000000000000000000000000077
:102168000000000000000000000000000000000067
:102178000000000000000000000000000000000057
:102188000000000000000000000000000000000047
:102198000000000000000000000000000000000037
:1021A8000000000000000000000000000000000027
:1021B8000000000000000000000000000000000017
:1021C8000000000000000000000000000000000007
:1021D80000000000000000000000000000000000F7
:1021E80000000000000000000000000000000000E7
:1021F80000000000000000000000000000000000D7
:1022080000000000000000000000000000000000C6
:10221800000000000000000004101000001701007A
:1022280000000000000000000090100000222107BC
:10223800000000000000000035D9583728425351EB
:1022480000000000000000005495544554826522A7
:1022580000000000000000007495D937550233577C
:102268000000000000000000100000000000000056
:1022780000000000000000006000000000000000F6
:102288000000000000000000000000000000000046
:1022980020EEE066E08EC0EC60E6E02E80EEE0CC5A
:1022A800C0EC20EEE066E08EE02EE0CC80EE60E64A
:1022B800CC7F33EFFE33F0CC00CC00CC00CC00CC8C
:1022C80020E6E026E08C80EC006C2046C006408CBE
:1022D80000C64026600C804CC08800E82062E002FE
:1022E8006022E00880C800E24444000F2222F00087
:1022F80000CC00CC00CC00CC00E42026E004808C8C
:102308006003600C4604260222226006400EFEFE90
:10231800FDFDFCFEFE012530356400002020C4E3ED
:10232800B0B4CFC2C1CBB0B4BCFC001F111F001F9A
:10233800001D151715151F07041F17151D1F151D3F
:0E23480001011F1F151F17151F0100000000C7
:00000001FF
